{
  "contractName": "Challenge",
  "abi": [
    {
      "inputs": [],
      "stateMutability": "nonpayable",
      "type": "constructor"
    },
    {
      "inputs": [
        {
          "internalType": "uint256",
          "name": "",
          "type": "uint256"
        },
        {
          "internalType": "uint256",
          "name": "",
          "type": "uint256"
        }
      ],
      "name": "achievers",
      "outputs": [
        {
          "internalType": "address",
          "name": "",
          "type": "address"
        }
      ],
      "stateMutability": "view",
      "type": "function",
      "constant": true
    },
    {
      "inputs": [
        {
          "internalType": "uint256",
          "name": "",
          "type": "uint256"
        },
        {
          "internalType": "address",
          "name": "",
          "type": "address"
        }
      ],
      "name": "amountOfFinesAvailableForAchiever",
      "outputs": [
        {
          "internalType": "uint256",
          "name": "",
          "type": "uint256"
        }
      ],
      "stateMutability": "view",
      "type": "function",
      "constant": true
    },
    {
      "inputs": [
        {
          "internalType": "uint256",
          "name": "",
          "type": "uint256"
        }
      ],
      "name": "amountOfFinishedAchievers",
      "outputs": [
        {
          "internalType": "uint256",
          "name": "",
          "type": "uint256"
        }
      ],
      "stateMutability": "view",
      "type": "function",
      "constant": true
    },
    {
      "inputs": [
        {
          "internalType": "uint256",
          "name": "",
          "type": "uint256"
        }
      ],
      "name": "fine",
      "outputs": [
        {
          "internalType": "uint256",
          "name": "",
          "type": "uint256"
        }
      ],
      "stateMutability": "view",
      "type": "function",
      "constant": true
    },
    {
      "inputs": [
        {
          "internalType": "uint256",
          "name": "",
          "type": "uint256"
        },
        {
          "internalType": "uint256",
          "name": "",
          "type": "uint256"
        }
      ],
      "name": "fineAvailableForAchiever",
      "outputs": [
        {
          "internalType": "address",
          "name": "",
          "type": "address"
        }
      ],
      "stateMutability": "view",
      "type": "function",
      "constant": true
    },
    {
      "inputs": [
        {
          "internalType": "uint256",
          "name": "",
          "type": "uint256"
        },
        {
          "internalType": "uint256",
          "name": "",
          "type": "uint256"
        }
      ],
      "name": "fineAvailableForPeriod",
      "outputs": [
        {
          "internalType": "uint256",
          "name": "",
          "type": "uint256"
        }
      ],
      "stateMutability": "view",
      "type": "function",
      "constant": true
    },
    {
      "inputs": [
        {
          "internalType": "uint256",
          "name": "",
          "type": "uint256"
        },
        {
          "internalType": "uint256",
          "name": "",
          "type": "uint256"
        }
      ],
      "name": "fineTaken",
      "outputs": [
        {
          "internalType": "bool",
          "name": "",
          "type": "bool"
        }
      ],
      "stateMutability": "view",
      "type": "function",
      "constant": true
    },
    {
      "inputs": [
        {
          "internalType": "uint256",
          "name": "",
          "type": "uint256"
        }
      ],
      "name": "guarantee",
      "outputs": [
        {
          "internalType": "uint256",
          "name": "",
          "type": "uint256"
        }
      ],
      "stateMutability": "view",
      "type": "function",
      "constant": true
    },
    {
      "inputs": [
        {
          "internalType": "uint256",
          "name": "",
          "type": "uint256"
        },
        {
          "internalType": "address",
          "name": "",
          "type": "address"
        }
      ],
      "name": "idOfCurrentPeriod",
      "outputs": [
        {
          "internalType": "uint256",
          "name": "",
          "type": "uint256"
        }
      ],
      "stateMutability": "view",
      "type": "function",
      "constant": true
    },
    {
      "inputs": [
        {
          "internalType": "uint256",
          "name": "",
          "type": "uint256"
        },
        {
          "internalType": "address",
          "name": "",
          "type": "address"
        }
      ],
      "name": "isAchiever",
      "outputs": [
        {
          "internalType": "bool",
          "name": "",
          "type": "bool"
        }
      ],
      "stateMutability": "view",
      "type": "function",
      "constant": true
    },
    {
      "inputs": [
        {
          "internalType": "uint256",
          "name": "",
          "type": "uint256"
        },
        {
          "internalType": "address",
          "name": "",
          "type": "address"
        }
      ],
      "name": "isFinishedForAchiever",
      "outputs": [
        {
          "internalType": "bool",
          "name": "",
          "type": "bool"
        }
      ],
      "stateMutability": "view",
      "type": "function",
      "constant": true
    },
    {
      "inputs": [
        {
          "internalType": "uint256",
          "name": "",
          "type": "uint256"
        },
        {
          "internalType": "address",
          "name": "",
          "type": "address"
        }
      ],
      "name": "isObserver",
      "outputs": [
        {
          "internalType": "bool",
          "name": "",
          "type": "bool"
        }
      ],
      "stateMutability": "view",
      "type": "function",
      "constant": true
    },
    {
      "inputs": [],
      "name": "isSetWallet",
      "outputs": [
        {
          "internalType": "bool",
          "name": "",
          "type": "bool"
        }
      ],
      "stateMutability": "view",
      "type": "function",
      "constant": true
    },
    {
      "inputs": [
        {
          "internalType": "uint256",
          "name": "",
          "type": "uint256"
        }
      ],
      "name": "isStarted",
      "outputs": [
        {
          "internalType": "bool",
          "name": "",
          "type": "bool"
        }
      ],
      "stateMutability": "view",
      "type": "function",
      "constant": true
    },
    {
      "inputs": [
        {
          "internalType": "uint256",
          "name": "",
          "type": "uint256"
        }
      ],
      "name": "lastAchieverId",
      "outputs": [
        {
          "internalType": "uint256",
          "name": "",
          "type": "uint256"
        }
      ],
      "stateMutability": "view",
      "type": "function",
      "constant": true
    },
    {
      "inputs": [],
      "name": "lastChallengeId",
      "outputs": [
        {
          "internalType": "uint256",
          "name": "",
          "type": "uint256"
        }
      ],
      "stateMutability": "view",
      "type": "function",
      "constant": true
    },
    {
      "inputs": [
        {
          "internalType": "uint256",
          "name": "",
          "type": "uint256"
        }
      ],
      "name": "lastFineId",
      "outputs": [
        {
          "internalType": "uint256",
          "name": "",
          "type": "uint256"
        }
      ],
      "stateMutability": "view",
      "type": "function",
      "constant": true
    },
    {
      "inputs": [
        {
          "internalType": "uint256",
          "name": "",
          "type": "uint256"
        }
      ],
      "name": "lastObserverId",
      "outputs": [
        {
          "internalType": "uint256",
          "name": "",
          "type": "uint256"
        }
      ],
      "stateMutability": "view",
      "type": "function",
      "constant": true
    },
    {
      "inputs": [
        {
          "internalType": "uint256",
          "name": "",
          "type": "uint256"
        }
      ],
      "name": "lastSchedulePeriodId",
      "outputs": [
        {
          "internalType": "uint256",
          "name": "",
          "type": "uint256"
        }
      ],
      "stateMutability": "view",
      "type": "function",
      "constant": true
    },
    {
      "inputs": [
        {
          "internalType": "uint256",
          "name": "",
          "type": "uint256"
        },
        {
          "internalType": "uint256",
          "name": "",
          "type": "uint256"
        }
      ],
      "name": "observers",
      "outputs": [
        {
          "internalType": "address",
          "name": "",
          "type": "address"
        }
      ],
      "stateMutability": "view",
      "type": "function",
      "constant": true
    },
    {
      "inputs": [],
      "name": "owner",
      "outputs": [
        {
          "internalType": "address",
          "name": "",
          "type": "address"
        }
      ],
      "stateMutability": "view",
      "type": "function",
      "constant": true
    },
    {
      "inputs": [
        {
          "internalType": "uint256",
          "name": "",
          "type": "uint256"
        }
      ],
      "name": "ownerOfChallenge",
      "outputs": [
        {
          "internalType": "address",
          "name": "",
          "type": "address"
        }
      ],
      "stateMutability": "view",
      "type": "function",
      "constant": true
    },
    {
      "inputs": [
        {
          "internalType": "uint256",
          "name": "",
          "type": "uint256"
        },
        {
          "internalType": "uint256",
          "name": "",
          "type": "uint256"
        }
      ],
      "name": "schedule",
      "outputs": [
        {
          "internalType": "uint256",
          "name": "",
          "type": "uint256"
        }
      ],
      "stateMutability": "view",
      "type": "function",
      "constant": true
    },
    {
      "inputs": [
        {
          "internalType": "uint256",
          "name": "",
          "type": "uint256"
        },
        {
          "internalType": "address",
          "name": "",
          "type": "address"
        },
        {
          "internalType": "uint256",
          "name": "",
          "type": "uint256"
        }
      ],
      "name": "scheduleDone",
      "outputs": [
        {
          "internalType": "bool",
          "name": "",
          "type": "bool"
        }
      ],
      "stateMutability": "view",
      "type": "function",
      "constant": true
    },
    {
      "inputs": [
        {
          "internalType": "uint256",
          "name": "",
          "type": "uint256"
        }
      ],
      "name": "start",
      "outputs": [
        {
          "internalType": "uint256",
          "name": "",
          "type": "uint256"
        }
      ],
      "stateMutability": "view",
      "type": "function",
      "constant": true
    },
    {
      "inputs": [
        {
          "internalType": "uint256",
          "name": "",
          "type": "uint256"
        },
        {
          "internalType": "address",
          "name": "",
          "type": "address"
        }
      ],
      "name": "startTimeOfCurrentPeriod",
      "outputs": [
        {
          "internalType": "uint256",
          "name": "",
          "type": "uint256"
        }
      ],
      "stateMutability": "view",
      "type": "function",
      "constant": true
    },
    {
      "inputs": [],
      "name": "walletAddress",
      "outputs": [
        {
          "internalType": "address payable",
          "name": "",
          "type": "address"
        }
      ],
      "stateMutability": "view",
      "type": "function",
      "constant": true
    },
    {
      "stateMutability": "payable",
      "type": "receive",
      "payable": true
    },
    {
      "inputs": [
        {
          "internalType": "address payable",
          "name": "_walletAddress",
          "type": "address"
        }
      ],
      "name": "setContractWallet",
      "outputs": [],
      "stateMutability": "nonpayable",
      "type": "function"
    },
    {
      "inputs": [
        {
          "internalType": "uint256",
          "name": "_start",
          "type": "uint256"
        },
        {
          "internalType": "uint256",
          "name": "_guarantee",
          "type": "uint256"
        },
        {
          "internalType": "uint256",
          "name": "_fine",
          "type": "uint256"
        }
      ],
      "name": "addChallenge",
      "outputs": [],
      "stateMutability": "nonpayable",
      "type": "function"
    },
    {
      "inputs": [
        {
          "internalType": "uint256",
          "name": "_challengeId",
          "type": "uint256"
        },
        {
          "internalType": "address",
          "name": "_achiever",
          "type": "address"
        },
        {
          "internalType": "uint256",
          "name": "_sumOfWei",
          "type": "uint256"
        }
      ],
      "name": "becomeAchiever",
      "outputs": [
        {
          "internalType": "uint256",
          "name": "",
          "type": "uint256"
        }
      ],
      "stateMutability": "nonpayable",
      "type": "function"
    },
    {
      "inputs": [
        {
          "internalType": "uint256",
          "name": "_challengeId",
          "type": "uint256"
        },
        {
          "internalType": "address[10]",
          "name": "_observers",
          "type": "address[10]"
        }
      ],
      "name": "addObservers",
      "outputs": [],
      "stateMutability": "nonpayable",
      "type": "function"
    },
    {
      "inputs": [
        {
          "internalType": "uint256",
          "name": "_challengeId",
          "type": "uint256"
        }
      ],
      "name": "becomeObserver",
      "outputs": [],
      "stateMutability": "nonpayable",
      "type": "function"
    },
    {
      "inputs": [
        {
          "internalType": "uint256",
          "name": "_challengeId",
          "type": "uint256"
        },
        {
          "internalType": "uint256[10]",
          "name": "_schedulePeriods",
          "type": "uint256[10]"
        }
      ],
      "name": "addToSchedule",
      "outputs": [],
      "stateMutability": "nonpayable",
      "type": "function"
    },
    {
      "inputs": [
        {
          "internalType": "uint256",
          "name": "_challengeId",
          "type": "uint256"
        }
      ],
      "name": "startChallenge",
      "outputs": [],
      "stateMutability": "nonpayable",
      "type": "function"
    },
    {
      "inputs": [
        {
          "internalType": "uint256",
          "name": "_challengeId",
          "type": "uint256"
        }
      ],
      "name": "setDoneForPeriod",
      "outputs": [],
      "stateMutability": "nonpayable",
      "type": "function"
    },
    {
      "inputs": [
        {
          "internalType": "uint256",
          "name": "_challengeId",
          "type": "uint256"
        },
        {
          "internalType": "address",
          "name": "_achiever",
          "type": "address"
        }
      ],
      "name": "calcCurrentPeriod",
      "outputs": [
        {
          "internalType": "bool",
          "name": "",
          "type": "bool"
        }
      ],
      "stateMutability": "nonpayable",
      "type": "function"
    },
    {
      "inputs": [
        {
          "internalType": "uint256",
          "name": "_challengeId",
          "type": "uint256"
        },
        {
          "internalType": "uint256",
          "name": "_fineId",
          "type": "uint256"
        },
        {
          "internalType": "address",
          "name": "_observer",
          "type": "address"
        }
      ],
      "name": "takeFineForChallenge",
      "outputs": [
        {
          "internalType": "address",
          "name": "",
          "type": "address"
        },
        {
          "internalType": "uint256",
          "name": "",
          "type": "uint256"
        }
      ],
      "stateMutability": "nonpayable",
      "type": "function"
    },
    {
      "inputs": [
        {
          "internalType": "uint256",
          "name": "_challengeId",
          "type": "uint256"
        },
        {
          "internalType": "address",
          "name": "_achiever",
          "type": "address"
        }
      ],
      "name": "finishChallenge",
      "outputs": [],
      "stateMutability": "nonpayable",
      "type": "function"
    }
  ],
  "bytecode": "0x608060405234801561001057600080fd5b50336000806101000a81548173ffffffffffffffffffffffffffffffffffffffff021916908373ffffffffffffffffffffffffffffffffffffffff1602179055506143a2806100606000396000f3fe6080604052600436106102295760003560e01c80636ad5b3ea11610123578063ad26e4bf116100ab578063cfd7c60b1161006f578063cfd7c60b14610f34578063e09762e014610f6f578063eacf19d714610fbe578063f7efcd221461100f578063fb5bd6f21461106857610287565b8063ad26e4bf14610d4b578063b8bdae5314610dc8578063bdf8b65314610e17578063cb74b61314610e8a578063cf45078114610ed957610287565b8063899752c4116100f2578063899752c414610bca5780638da5cb5b14610c2757806395805dad14610c7e578063a0d666e914610ccd578063abd225e114610cf857610287565b80636ad5b3ea146109c45780637bdc4f3e14610a1b57806381010ced14610aa05780638534fff214610b1e57610287565b80632b69830b116101b15780634a19d4a6116101755780634a19d4a6146108215780635223ae901461085c5780635f8846e4146108cb578063676444831461091a5780636ad4e87a1461098957610287565b80632b69830b146106165780632ee20371146106855780633c508ac31461070a5780633cdbe78914610783578063460473c3146107d257610287565b806311fd076e116101f857806311fd076e1461044e57806312f29325146104c1578063194b9d4a146104f05780631d9b1d6f1461056e5780632b56d95c146105c757610287565b80630a0fb2071461028c5780630e0841d1146103075780630fe2d58a1461037a578063101bafbb146103c957610287565b36610287576000610285576040517f08c379a000000000000000000000000000000000000000000000000000000000815260040180806020018281038252602b8152602001806141f8602b913960400191505060405180910390fd5b005b600080fd5b34801561029857600080fd5b506102c5600480360360208110156102af57600080fd5b81019080803590602001909291905050506110db565b604051808273ffffffffffffffffffffffffffffffffffffffff1673ffffffffffffffffffffffffffffffffffffffff16815260200191505060405180910390f35b34801561031357600080fd5b506103606004803603604081101561032a57600080fd5b8101908080359060200190929190803573ffffffffffffffffffffffffffffffffffffffff16906020019092919050505061110e565b604051808215151515815260200191505060405180910390f35b34801561038657600080fd5b506103b36004803603602081101561039d57600080fd5b81019080803590602001909291905050506117ce565b6040518082815260200191505060405180910390f35b3480156103d557600080fd5b5061040c600480360360408110156103ec57600080fd5b8101908080359060200190929190803590602001909291905050506117e6565b604051808273ffffffffffffffffffffffffffffffffffffffff1673ffffffffffffffffffffffffffffffffffffffff16815260200191505060405180910390f35b34801561045a57600080fd5b506104a76004803603604081101561047157600080fd5b8101908080359060200190929190803573ffffffffffffffffffffffffffffffffffffffff169060200190929190505050611828565b604051808215151515815260200191505060405180910390f35b3480156104cd57600080fd5b506104d6611857565b604051808215151515815260200191505060405180910390f35b3480156104fc57600080fd5b5061056c600480360361016081101561051457600080fd5b8101908080359060200190929190806101400190600a806020026040519081016040528092919082600a60200280828437600081840152601f19601f820116905080830192505050505050919291929050505061186a565b005b34801561057a57600080fd5b506105b16004803603604081101561059157600080fd5b810190808035906020019092919080359060200190929190505050611a55565b6040518082815260200191505060405180910390f35b3480156105d357600080fd5b50610600600480360360208110156105ea57600080fd5b8101908080359060200190929190505050611a7a565b6040518082815260200191505060405180910390f35b34801561062257600080fd5b5061066f6004803603604081101561063957600080fd5b8101908080359060200190929190803573ffffffffffffffffffffffffffffffffffffffff169060200190929190505050611a92565b6040518082815260200191505060405180910390f35b34801561069157600080fd5b506106c8600480360360408110156106a857600080fd5b810190808035906020019092919080359060200190929190505050611ab7565b604051808273ffffffffffffffffffffffffffffffffffffffff1673ffffffffffffffffffffffffffffffffffffffff16815260200191505060405180910390f35b34801561071657600080fd5b5061076d6004803603606081101561072d57600080fd5b8101908080359060200190929190803573ffffffffffffffffffffffffffffffffffffffff16906020019092919080359060200190929190505050611af9565b6040518082815260200191505060405180910390f35b34801561078f57600080fd5b506107bc600480360360208110156107a657600080fd5b8101908080359060200190929190505050611fd5565b6040518082815260200191505060405180910390f35b3480156107de57600080fd5b5061080b600480360360208110156107f557600080fd5b8101908080359060200190929190505050611fed565b6040518082815260200191505060405180910390f35b34801561082d57600080fd5b5061085a6004803603602081101561084457600080fd5b8101908080359060200190929190505050612005565b005b34801561086857600080fd5b506108b56004803603604081101561087f57600080fd5b8101908080359060200190929190803573ffffffffffffffffffffffffffffffffffffffff169060200190929190505050612396565b6040518082815260200191505060405180910390f35b3480156108d757600080fd5b50610904600480360360208110156108ee57600080fd5b81019080803590602001909291905050506123bb565b6040518082815260200191505060405180910390f35b34801561092657600080fd5b506109736004803603604081101561093d57600080fd5b8101908080359060200190929190803573ffffffffffffffffffffffffffffffffffffffff1690602001909291905050506123d3565b6040518082815260200191505060405180910390f35b34801561099557600080fd5b506109c2600480360360208110156109ac57600080fd5b81019080803590602001909291905050506123f8565b005b3480156109d057600080fd5b506109d96127c5565b604051808273ffffffffffffffffffffffffffffffffffffffff1673ffffffffffffffffffffffffffffffffffffffff16815260200191505060405180910390f35b348015610a2757600080fd5b50610a5e60048036036040811015610a3e57600080fd5b8101908080359060200190929190803590602001909291905050506127eb565b604051808273ffffffffffffffffffffffffffffffffffffffff1673ffffffffffffffffffffffffffffffffffffffff16815260200191505060405180910390f35b348015610aac57600080fd5b50610b1c6004803603610160811015610ac457600080fd5b8101908080359060200190929190806101400190600a806020026040519081016040528092919082600a60200280828437600081840152601f19601f820116905080830192505050505050919291929050505061282d565b005b348015610b2a57600080fd5b50610b8160048036036060811015610b4157600080fd5b810190808035906020019092919080359060200190929190803573ffffffffffffffffffffffffffffffffffffffff169060200190929190505050612d20565b604051808373ffffffffffffffffffffffffffffffffffffffff1673ffffffffffffffffffffffffffffffffffffffff1681526020018281526020019250505060405180910390f35b348015610bd657600080fd5b50610c0d60048036036040811015610bed57600080fd5b810190808035906020019092919080359060200190929190505050613165565b604051808215151515815260200191505060405180910390f35b348015610c3357600080fd5b50610c3c613194565b604051808273ffffffffffffffffffffffffffffffffffffffff1673ffffffffffffffffffffffffffffffffffffffff16815260200191505060405180910390f35b348015610c8a57600080fd5b50610cb760048036036020811015610ca157600080fd5b81019080803590602001909291905050506131b9565b6040518082815260200191505060405180910390f35b348015610cd957600080fd5b50610ce26131d1565b6040518082815260200191505060405180910390f35b348015610d0457600080fd5b50610d3160048036036020811015610d1b57600080fd5b81019080803590602001909291905050506131d7565b604051808215151515815260200191505060405180910390f35b348015610d5757600080fd5b50610dae60048036036060811015610d6e57600080fd5b8101908080359060200190929190803573ffffffffffffffffffffffffffffffffffffffff169060200190929190803590602001909291905050506131f7565b604051808215151515815260200191505060405180910390f35b348015610dd457600080fd5b50610e0160048036036020811015610deb57600080fd5b8101908080359060200190929190505050613233565b6040518082815260200191505060405180910390f35b348015610e2357600080fd5b50610e7060048036036040811015610e3a57600080fd5b8101908080359060200190929190803573ffffffffffffffffffffffffffffffffffffffff16906020019092919050505061324b565b604051808215151515815260200191505060405180910390f35b348015610e9657600080fd5b50610ec360048036036020811015610ead57600080fd5b810190808035906020019092919050505061327a565b6040518082815260200191505060405180910390f35b348015610ee557600080fd5b50610f3260048036036040811015610efc57600080fd5b8101908080359060200190929190803573ffffffffffffffffffffffffffffffffffffffff169060200190929190505050613292565b005b348015610f4057600080fd5b50610f6d60048036036020811015610f5757600080fd5b8101908080359060200190929190505050613703565b005b348015610f7b57600080fd5b50610fbc60048036036060811015610f9257600080fd5b81019080803590602001909291908035906020019092919080359060200190929190505050613c9b565b005b348015610fca57600080fd5b5061100d60048036036020811015610fe157600080fd5b81019080803573ffffffffffffffffffffffffffffffffffffffff169060200190929190505050613e2f565b005b34801561101b57600080fd5b506110526004803603604081101561103257600080fd5b810190808035906020019092919080359060200190929190505050613ff7565b6040518082815260200191505060405180910390f35b34801561107457600080fd5b506110c16004803603604081101561108b57600080fd5b8101908080359060200190929190803573ffffffffffffffffffffffffffffffffffffffff16906020019092919050505061401c565b604051808215151515815260200191505060405180910390f35b60046020528060005260406000206000915054906101000a900473ffffffffffffffffffffffffffffffffffffffff1681565b6000826003541015611188576040517f08c379a000000000000000000000000000000000000000000000000000000000815260040180806020018281038252601a8152602001807f4368616c6c656e676520494420646f65736e277420657869737400000000000081525060200191505060405180910390fd5b600e600084815260200190815260200160002060009054906101000a900460ff1661121b576040517f08c379a00000000000000000000000000000000000000000000000000000000081526004018080602001828103825260188152602001807f4368616c6c656e67652069736e277420737461727465642e000000000000000081525060200191505060405180910390fd5b6007600084815260200190815260200160002060008373ffffffffffffffffffffffffffffffffffffffff1673ffffffffffffffffffffffffffffffffffffffff16815260200190815260200160002060009054906101000a900460ff166112eb576040517f08c379a000000000000000000000000000000000000000000000000000000000815260040180806020018281038252601b8152602001807f5468697320616368696576657220646f65736e2774206578697374000000000081525060200191505060405180910390fd5b60006013600085815260200190815260200160002060008473ffffffffffffffffffffffffffffffffffffffff1673ffffffffffffffffffffffffffffffffffffffff16815260200190815260200160002054905060006012600086815260200190815260200160002054905060008214156114325760106000868152602001908152602001600020546014600087815260200190815260200160002060008673ffffffffffffffffffffffffffffffffffffffff1673ffffffffffffffffffffffffffffffffffffffff168152602001908152602001600020819055506013600086815260200190815260200160002060008573ffffffffffffffffffffffffffffffffffffffff1673ffffffffffffffffffffffffffffffffffffffff1681526020019081526020016000206000815480929190600101919050555081806001019250505b8082111561148b576040517f08c379a000000000000000000000000000000000000000000000000000000000815260040180806020018281038252603181526020018061417a6031913960400191505060405180910390fd5b60006014600087815260200190815260200160002060008673ffffffffffffffffffffffffffffffffffffffff1673ffffffffffffffffffffffffffffffffffffffff16815260200190815260200160002054905042601160008881526020019081526020016000206000858152602001908152602001600020548201111561155f576040517f08c379a00000000000000000000000000000000000000000000000000000000081526004018080602001828103825260228152602001806141ab6022913960400191505060405180910390fd5b6000600a8401905060008090506000809050600080905060008790505b8481116116e757601160008c8152602001908152602001600020600082815260200190815260200160002054860191504282116116d157601a60008c815260200190815260200160002060008154600101919050819055925080601660008d815260200190815260200160002060008581526020019081526020016000208190555089601760008d8152602001908152602001600020600085815260200190815260200160002060006101000a81548173ffffffffffffffffffffffffffffffffffffffff021916908373ffffffffffffffffffffffffffffffffffffffff160217905550601860008c815260200190815260200160002060008b73ffffffffffffffffffffffffffffffffffffffff1673ffffffffffffffffffffffffffffffffffffffff1681526020019081526020016000206000815480929190600101919050555081955087806001019850506116da565b600193506116e7565b808060010191505061157c565b5084601460008c815260200190815260200160002060008b73ffffffffffffffffffffffffffffffffffffffff1673ffffffffffffffffffffffffffffffffffffffff1681526020019081526020016000208190555086601360008c815260200190815260200160002060008b73ffffffffffffffffffffffffffffffffffffffff1673ffffffffffffffffffffffffffffffffffffffff16815260200190815260200160002081905550858711156117be57600860008b8152602001908152602001600020600081548092919060010191905055505b8297505050505050505092915050565b60126020528060005260406000206000915090505481565b60066020528160005260406000206020528060005260406000206000915091509054906101000a900473ffffffffffffffffffffffffffffffffffffffff1681565b600b6020528160005260406000206020528060005260406000206000915091509054906101000a900460ff1681565b600260149054906101000a900460ff1681565b6004600083815260200190815260200160002060009054906101000a900473ffffffffffffffffffffffffffffffffffffffff1673ffffffffffffffffffffffffffffffffffffffff163373ffffffffffffffffffffffffffffffffffffffff1614611921576040517f08c379a00000000000000000000000000000000000000000000000000000000081526004018080602001828103825260328152602001806141486032913960400191505060405180910390fd5b600e600083815260200190815260200160002060009054906101000a900460ff16156119b5576040517f08c379a000000000000000000000000000000000000000000000000000000000815260040180806020018281038252601e8152602001807f4368616c6c656e67652068617320616c726561647920737461727465642e000081525060200191505060405180910390fd5b600080905060008090505b600a811015611a4f5760008382600a81106119d757fe5b602002015114156119e757611a4f565b601260008581526020019081526020016000206000815460010191905081905591508281600a8110611a1557fe5b60200201516011600086815260200190815260200160002060008481526020019081526020016000208190555080806001019150506119c0565b50505050565b6011602052816000526040600020602052806000526040600020600091509150505481565b600c6020528060005260406000206000915090505481565b6014602052816000526040600020602052806000526040600020600091509150505481565b60176020528160005260406000206020528060005260406000206000915091509054906101000a900473ffffffffffffffffffffffffffffffffffffffff1681565b60008360035410158015611b0d5750600084115b611b7f576040517f08c379a000000000000000000000000000000000000000000000000000000000815260040180806020018281038252601a8152602001807f4368616c6c656e676520494420646f65736e277420657869737400000000000081525060200191505060405180910390fd5b600160009054906101000a900473ffffffffffffffffffffffffffffffffffffffff1673ffffffffffffffffffffffffffffffffffffffff163373ffffffffffffffffffffffffffffffffffffffff1614611c42576040517f08c379a000000000000000000000000000000000000000000000000000000000815260040180806020018281038252601d8152602001807f53656e6465722069736e277420636f6e74726163742057616c6c65742e00000081525060200191505060405180910390fd5b600c600085815260200190815260200160002054821015611cae576040517f08c379a000000000000000000000000000000000000000000000000000000000815260040180806020018281038252602f8152602001806142d4602f913960400191505060405180910390fd5b6007600085815260200190815260200160002060008473ffffffffffffffffffffffffffffffffffffffff1673ffffffffffffffffffffffffffffffffffffffff16815260200190815260200160002060009054906101000a900460ff1615611d7f576040517f08c379a000000000000000000000000000000000000000000000000000000000815260040180806020018281038252601e8152602001807f5468697320616368696576657220697320616c7265616479206578697374000081525060200191505060405180910390fd5b600b600085815260200190815260200160002060008473ffffffffffffffffffffffffffffffffffffffff1673ffffffffffffffffffffffffffffffffffffffff16815260200190815260200160002060009054906101000a900460ff1615611e33576040517f08c379a00000000000000000000000000000000000000000000000000000000081526004018080602001828103825260258152602001806142526025913960400191505060405180910390fd5b600e600085815260200190815260200160002060009054906101000a900460ff1615611ec7576040517f08c379a000000000000000000000000000000000000000000000000000000000815260040180806020018281038252601e8152602001807f4368616c6c656e67652068617320616c726561647920737461727465642e000081525060200191505060405180910390fd5b6000600560008681526020019081526020016000206000815460010191905081905590508360066000878152602001908152602001600020600083815260200190815260200160002060006101000a81548173ffffffffffffffffffffffffffffffffffffffff021916908373ffffffffffffffffffffffffffffffffffffffff16021790555060016007600087815260200190815260200160002060008673ffffffffffffffffffffffffffffffffffffffff1673ffffffffffffffffffffffffffffffffffffffff16815260200190815260200160002060006101000a81548160ff021916908315150217905550600c6000868152602001908152602001600020549150509392505050565b60056020528060005260406000206000915090505481565b600d6020528060005260406000206000915090505481565b80600354101580156120175750600081115b612089576040517f08c379a000000000000000000000000000000000000000000000000000000000815260040180806020018281038252601a8152602001807f4368616c6c656e676520494420646f65736e277420657869737400000000000081525060200191505060405180910390fd5b600b600082815260200190815260200160002060003373ffffffffffffffffffffffffffffffffffffffff1673ffffffffffffffffffffffffffffffffffffffff16815260200190815260200160002060009054906101000a900460ff161561215a576040517f08c379a000000000000000000000000000000000000000000000000000000000815260040180806020018281038252601e8152602001807f54686973206f6273657276657220697320616c7265616479206578697374000081525060200191505060405180910390fd5b6007600082815260200190815260200160002060003373ffffffffffffffffffffffffffffffffffffffff1673ffffffffffffffffffffffffffffffffffffffff16815260200190815260200160002060009054906101000a900460ff161561220e576040517f08c379a00000000000000000000000000000000000000000000000000000000081526004018080602001828103825260258152602001806142526025913960400191505060405180910390fd5b600e600082815260200190815260200160002060009054906101000a900460ff16156122a2576040517f08c379a000000000000000000000000000000000000000000000000000000000815260040180806020018281038252601e8152602001807f4368616c6c656e67652068617320616c726561647920737461727465642e000081525060200191505060405180910390fd5b60006009600083815260200190815260200160002060008154600101919050819055905033600a6000848152602001908152602001600020600083815260200190815260200160002060006101000a81548173ffffffffffffffffffffffffffffffffffffffff021916908373ffffffffffffffffffffffffffffffffffffffff1602179055506001600b600084815260200190815260200160002060003373ffffffffffffffffffffffffffffffffffffffff1673ffffffffffffffffffffffffffffffffffffffff16815260200190815260200160002060006101000a81548160ff0219169083151502179055505050565b6018602052816000526040600020602052806000526040600020600091509150505481565b60086020528060005260406000206000915090505481565b6013602052816000526040600020602052806000526040600020600091509150505481565b806003541015801561240a5750600081115b61247c576040517f08c379a000000000000000000000000000000000000000000000000000000000815260040180806020018281038252601a8152602001807f4368616c6c656e676520494420646f65736e277420657869737400000000000081525060200191505060405180910390fd5b6004600082815260200190815260200160002060009054906101000a900473ffffffffffffffffffffffffffffffffffffffff1673ffffffffffffffffffffffffffffffffffffffff163373ffffffffffffffffffffffffffffffffffffffff1614612533576040517f08c379a000000000000000000000000000000000000000000000000000000000815260040180806020018281038252602b8152602001806141cd602b913960400191505060405180910390fd5b600e600082815260200190815260200160002060009054906101000a900460ff16156125c7576040517f08c379a000000000000000000000000000000000000000000000000000000000815260040180806020018281038252601e8152602001807f4368616c6c656e67652068617320616c726561647920737461727465642e000081525060200191505060405180910390fd5b6000601260008381526020019081526020016000205411612650576040517f08c379a00000000000000000000000000000000000000000000000000000000081526004018080602001828103825260208152602001807f546865726520617265206e6f20706572696f647320696e207363686564756c6581525060200191505060405180910390fd5b60006005600083815260200190815260200160002054116126d9576040517f08c379a00000000000000000000000000000000000000000000000000000000081526004018080602001828103825260168152602001807f546865726520617265206e6f206163686965766572730000000000000000000081525060200191505060405180910390fd5b6000600960008381526020019081526020016000205411612762576040517f08c379a00000000000000000000000000000000000000000000000000000000081526004018080602001828103825260168152602001807f546865726520617265206e6f206f62736572766572730000000000000000000081525060200191505060405180910390fd5b6010600082815260200190815260200160002054421115612796574260106000838152602001908152602001600020819055505b6001600e600083815260200190815260200160002060006101000a81548160ff02191690831515021790555050565b600160009054906101000a900473ffffffffffffffffffffffffffffffffffffffff1681565b600a6020528160005260406000206020528060005260406000206000915091509054906101000a900473ffffffffffffffffffffffffffffffffffffffff1681565b6004600083815260200190815260200160002060009054906101000a900473ffffffffffffffffffffffffffffffffffffffff1673ffffffffffffffffffffffffffffffffffffffff163373ffffffffffffffffffffffffffffffffffffffff16146128e4576040517f08c379a00000000000000000000000000000000000000000000000000000000081526004018080602001828103825260348152602001806142776034913960400191505060405180910390fd5b81600354101580156128f65750600082115b612968576040517f08c379a000000000000000000000000000000000000000000000000000000000815260040180806020018281038252601a8152602001807f4368616c6c656e676520494420646f65736e277420657869737400000000000081525060200191505060405180910390fd5b600e600083815260200190815260200160002060009054906101000a900460ff16156129fc576040517f08c379a000000000000000000000000000000000000000000000000000000000815260040180806020018281038252601e8152602001807f4368616c6c656e67652068617320616c726561647920737461727465642e000081525060200191505060405180910390fd5b600080905060008090505b600a811015612d1a57600073ffffffffffffffffffffffffffffffffffffffff168382600a8110612a3457fe5b602002015173ffffffffffffffffffffffffffffffffffffffff161415612a5a57612d1a565b600b600085815260200190815260200160002060008483600a8110612a7b57fe5b602002015173ffffffffffffffffffffffffffffffffffffffff1673ffffffffffffffffffffffffffffffffffffffff16815260200190815260200160002060009054906101000a900460ff1615612b3b576040517f08c379a000000000000000000000000000000000000000000000000000000000815260040180806020018281038252601e8152602001807f54686973206f6273657276657220697320616c7265616479206578697374000081525060200191505060405180910390fd5b6007600085815260200190815260200160002060008483600a8110612b5c57fe5b602002015173ffffffffffffffffffffffffffffffffffffffff1673ffffffffffffffffffffffffffffffffffffffff16815260200190815260200160002060009054906101000a900460ff1615612bff576040517f08c379a00000000000000000000000000000000000000000000000000000000081526004018080602001828103825260258152602001806142526025913960400191505060405180910390fd5b600960008581526020019081526020016000206000815460010191905081905591508281600a8110612c2d57fe5b6020020151600a6000868152602001908152602001600020600084815260200190815260200160002060006101000a81548173ffffffffffffffffffffffffffffffffffffffff021916908373ffffffffffffffffffffffffffffffffffffffff1602179055506001600b600086815260200190815260200160002060008584600a8110612cb757fe5b602002015173ffffffffffffffffffffffffffffffffffffffff1673ffffffffffffffffffffffffffffffffffffffff16815260200190815260200160002060006101000a81548160ff0219169083151502179055508080600101915050612a07565b50505050565b600080846003541015612d9b576040517f08c379a000000000000000000000000000000000000000000000000000000000815260040180806020018281038252601a8152602001807f4368616c6c656e676520494420646f65736e277420657869737400000000000081525060200191505060405180910390fd5b600160009054906101000a900473ffffffffffffffffffffffffffffffffffffffff1673ffffffffffffffffffffffffffffffffffffffff163373ffffffffffffffffffffffffffffffffffffffff1614612e5e576040517f08c379a000000000000000000000000000000000000000000000000000000000815260040180806020018281038252601d8152602001807f53656e6465722069736e277420636f6e74726163742057616c6c65742e00000081525060200191505060405180910390fd5b83601a6000878152602001908152602001600020541015612ee7576040517f08c379a00000000000000000000000000000000000000000000000000000000081526004018080602001828103825260158152602001807f46696e6520494420646f65736e2774206578697374000000000000000000000081525060200191505060405180910390fd5b600b600086815260200190815260200160002060008473ffffffffffffffffffffffffffffffffffffffff1673ffffffffffffffffffffffffffffffffffffffff16815260200190815260200160002060009054906101000a900460ff16612fb7576040517f08c379a00000000000000000000000000000000000000000000000000000000081526004018080602001828103825260148152602001807f557365722069736e2774206f627365727665722e00000000000000000000000081525060200191505060405180910390fd5b60196000868152602001908152602001600020600085815260200190815260200160002060009054906101000a900460ff161561305c576040517f08c379a00000000000000000000000000000000000000000000000000000000081526004018080602001828103825260168152602001807f46696e6520697320616c72656164792074616b656e2e0000000000000000000081525060200191505060405180910390fd5b600060176000878152602001908152602001600020600086815260200190815260200160002060009054906101000a900473ffffffffffffffffffffffffffffffffffffffff169050600160196000888152602001908152602001600020600087815260200190815260200160002060006101000a81548160ff0219169083151502179055506018600087815260200190815260200160002060008273ffffffffffffffffffffffffffffffffffffffff1673ffffffffffffffffffffffffffffffffffffffff168152602001908152602001600020600081548092919060019003919050555080600d6000888152602001908152602001600020549250925050935093915050565b60196020528160005260406000206020528060005260406000206000915091509054906101000a900460ff1681565b6000809054906101000a900473ffffffffffffffffffffffffffffffffffffffff1681565b60106020528060005260406000206000915090505481565b60035481565b600e6020528060005260406000206000915054906101000a900460ff1681565b6015602052826000526040600020602052816000526040600020602052806000526040600020600092509250509054906101000a900460ff1681565b601a6020528060005260406000206000915090505481565b600f6020528160005260406000206020528060005260406000206000915091509054906101000a900460ff1681565b60096020528060005260406000206000915090505481565b81600354101561330a576040517f08c379a000000000000000000000000000000000000000000000000000000000815260040180806020018281038252601a8152602001807f4368616c6c656e676520494420646f65736e277420657869737400000000000081525060200191505060405180910390fd5b6007600083815260200190815260200160002060008273ffffffffffffffffffffffffffffffffffffffff1673ffffffffffffffffffffffffffffffffffffffff16815260200190815260200160002060009054906101000a900460ff166133bd576040517f08c379a00000000000000000000000000000000000000000000000000000000081526004018080602001828103825260368152602001806141126036913960400191505060405180910390fd5b60126000838152602001908152602001600020546013600084815260200190815260200160002060008373ffffffffffffffffffffffffffffffffffffffff1673ffffffffffffffffffffffffffffffffffffffff1681526020019081526020016000205411613478576040517f08c379a00000000000000000000000000000000000000000000000000000000081526004018080602001828103825260298152602001806142ab6029913960400191505060405180910390fd5b60006018600084815260200190815260200160002060008373ffffffffffffffffffffffffffffffffffffffff1673ffffffffffffffffffffffffffffffffffffffff1681526020019081526020016000205414613521576040517f08c379a000000000000000000000000000000000000000000000000000000000815260040180806020018281038252602f815260200180614223602f913960400191505060405180910390fd5b600f600083815260200190815260200160002060008273ffffffffffffffffffffffffffffffffffffffff1673ffffffffffffffffffffffffffffffffffffffff16815260200190815260200160002060009054906101000a900460ff16156135d5576040517f08c379a000000000000000000000000000000000000000000000000000000000815260040180806020018281038252602f8152602001806140a0602f913960400191505060405180910390fd5b6001600f600084815260200190815260200160002060008373ffffffffffffffffffffffffffffffffffffffff1673ffffffffffffffffffffffffffffffffffffffff16815260200190815260200160002060006101000a81548160ff021916908315150217905550600260009054906101000a900473ffffffffffffffffffffffffffffffffffffffff1673ffffffffffffffffffffffffffffffffffffffff1663cf45078183836040518363ffffffff1660e01b8152600401808381526020018273ffffffffffffffffffffffffffffffffffffffff1673ffffffffffffffffffffffffffffffffffffffff16815260200192505050600060405180830381600087803b1580156136e757600080fd5b505af11580156136fb573d6000803e3d6000fd5b505050505050565b80600354101561377b576040517f08c379a000000000000000000000000000000000000000000000000000000000815260040180806020018281038252601a8152602001807f4368616c6c656e676520494420646f65736e277420657869737400000000000081525060200191505060405180910390fd5b600e600082815260200190815260200160002060009054906101000a900460ff1661380e576040517f08c379a00000000000000000000000000000000000000000000000000000000081526004018080602001828103825260188152602001807f4368616c6c656e67652069736e277420737461727465642e000000000000000081525060200191505060405180910390fd5b60003390506007600083815260200190815260200160002060008273ffffffffffffffffffffffffffffffffffffffff1673ffffffffffffffffffffffffffffffffffffffff16815260200190815260200160002060009054906101000a900460ff166138c6576040517f08c379a000000000000000000000000000000000000000000000000000000000815260040180806020018281038252603281526020018061406e6032913960400191505060405180910390fd5b60006013600084815260200190815260200160002060008373ffffffffffffffffffffffffffffffffffffffff1673ffffffffffffffffffffffffffffffffffffffff1681526020019081526020016000205490506000601260008581526020019081526020016000205490506000821415613a0d5760106000858152602001908152602001600020546014600086815260200190815260200160002060008573ffffffffffffffffffffffffffffffffffffffff1673ffffffffffffffffffffffffffffffffffffffff168152602001908152602001600020819055506013600085815260200190815260200160002060008473ffffffffffffffffffffffffffffffffffffffff1673ffffffffffffffffffffffffffffffffffffffff1681526020019081526020016000206000815480929190600101919050555081806001019250505b80821115613a66576040517f08c379a000000000000000000000000000000000000000000000000000000000815260040180806020018281038252603181526020018061417a6031913960400191505060405180910390fd5b6000601160008681526020019081526020016000206000848152602001908152602001600020546014600087815260200190815260200160002060008673ffffffffffffffffffffffffffffffffffffffff1673ffffffffffffffffffffffffffffffffffffffff1681526020019081526020016000205401905042811015613b3a576040517f08c379a000000000000000000000000000000000000000000000000000000000815260040180806020018281038252606a815260200180614303606a913960800191505060405180910390fd5b60016015600087815260200190815260200160002060008673ffffffffffffffffffffffffffffffffffffffff1673ffffffffffffffffffffffffffffffffffffffff168152602001908152602001600020600085815260200190815260200160002060006101000a81548160ff0219169083151502179055506013600086815260200190815260200160002060008573ffffffffffffffffffffffffffffffffffffffff1673ffffffffffffffffffffffffffffffffffffffff168152602001908152602001600020600081546001019190508190559250806014600087815260200190815260200160002060008673ffffffffffffffffffffffffffffffffffffffff1673ffffffffffffffffffffffffffffffffffffffff1681526020019081526020016000208190555081831115613c945760086000868152602001908152602001600020600081548092919060010191905055505b5050505050565b600260149054906101000a900460ff16613d1d576040517f08c379a000000000000000000000000000000000000000000000000000000000815260040180806020018281038252601e8152602001807f436f6e74726163742057616c6c65742068617320746f206265207365742e000081525060200191505060405180910390fd5b80821015613d76576040517f08c379a00000000000000000000000000000000000000000000000000000000081526004018080602001828103825260438152602001806140cf6043913960600191505060405180910390fd5b6003600081548092919060010191905055503360046000600354815260200190815260200160002060006101000a81548173ffffffffffffffffffffffffffffffffffffffff021916908373ffffffffffffffffffffffffffffffffffffffff160217905550826010600060035481526020019081526020016000208190555081600c600060035481526020019081526020016000208190555080600d6000600354815260200190815260200160002081905550505050565b3373ffffffffffffffffffffffffffffffffffffffff166000809054906101000a900473ffffffffffffffffffffffffffffffffffffffff1673ffffffffffffffffffffffffffffffffffffffff1614613ed4576040517f08c379a000000000000000000000000000000000000000000000000000000000815260040180806020018281038252602281526020018061404c6022913960400191505060405180910390fd5b600260149054906101000a900460ff1615613f57576040517f08c379a000000000000000000000000000000000000000000000000000000000815260040180806020018281038252601f8152602001807f436f6e74726163742057616c6c65742068617320616c7265616479207365740081525060200191505060405180910390fd5b80600160006101000a81548173ffffffffffffffffffffffffffffffffffffffff021916908373ffffffffffffffffffffffffffffffffffffffff16021790555080600260006101000a81548173ffffffffffffffffffffffffffffffffffffffff021916908373ffffffffffffffffffffffffffffffffffffffff1602179055506001600260146101000a81548160ff02191690831515021790555050565b6016602052816000526040600020602052806000526040600020600091509150505481565b60076020528160005260406000206020528060005260406000206000915091509054906101000a900460ff168156fe4f6e6c79206f776e65722063616e2073657420636f6e74726163742057616c6c65744f6e6c79206163686965766572206f66206368616c6c656e67652063616e2073657420646f6e6520666f7220706572696f644368616c6c656e676520697320616c72656164792066696e697368656420666f72207468652061636869657665722e53756d206f662067756172616e7465652073686f756c642062652065697468657220657175616c206f722067726561746572207468616e2073756d206f662066696e65557365722066726f6d20706172616d6574657220275f6163686965766572272068617320746f20626520616e2061636869657665722e4f6e6c79206f776e6572206f66206368616c6c656e67652063616e2061646420706572696f6420746f207363686564756c654368616c6c656e676520666f7220746869732061636869657665722068617320616c72656164792066696e69736865642e43757272656e74207363686564756c6520706572696f642069732061637475616c2e4f6e6c79206f776e6572206f66206368616c6c656e67652063616e207374617274206368616c6c656e6765436f6e7472616374204368616c6c656e676520646f65736e277420616363657074207061796d656e74732e416c6c206f66207468652066696e65732068617320746f2062652074616b656e2066726f6d2061636869657665722e5468697320757365722068617320616c7265616479206265636f6d652061636869657665724f6e6c79206f776e6572206f66206368616c6c656e67652063616e20616464206f6273657276657220746f207363686564756c654368616c6c656e676520666f72207468697320616368696576657220697320636f6e74696e7565642e53756d206f6620776569206973206c657373207468616e2072657175697265642067756172616e7465652073756d2e43757272656e74207363686564756c6520706572696f642068617320616c726561647920636f6d706c657465642e20417420666972737420796f75206e65656420746f207573652066756e6374696f6e2063616c6343757272656e745363686564756c654974656d2829a2646970667358221220ce37f1bfeb41bbf6ba1020de75a29d554221863f5ed700ed7bae5f6eea7374d064736f6c63430006060033",
  "immutableReferences": {},
  "source": "pragma solidity ^0.6.6;\nimport './Wallet.sol';\n\ncontract Challenge {\n    address public owner; // address of owner of contract\n\n    address payable public walletAddress;\n    Wallet walletContract;\n    bool public isSetWallet;\n\n    uint256 public lastChallengeId;\n    mapping(uint256 => address) public ownerOfChallenge; // [challengeId] = address of owner of challenge\n\n    mapping(uint256 => uint256) public lastAchieverId; // [challengeId] = last id of achiever in current challenge\n    mapping(uint256 => mapping(uint256 => address)) public achievers; // [challengeId][indexOfAchiever] = address of achiever\n    mapping(uint256 => mapping(address => bool)) public isAchiever; // [challengeId][addressOfAchiever] = is user an achiever in current challenge?\n    mapping(uint256 => uint256) public amountOfFinishedAchievers; // [challengeId] = amount of finished achievers\n\n    mapping(uint256 => uint256) public lastObserverId; // [challengeId] = last id of observer in current challenge\n    mapping(uint256 => mapping(uint256 => address)) public observers; // [challengeId][indexOfObserver] = address of observer\n    mapping(uint256 => mapping(address => bool)) public isObserver; // [challengeId][addressOfObserver] = is user an observer in current challenge?\n\n    mapping(uint256 => uint256) public guarantee; // [challengeId] = guarantee sum of wei\n    mapping(uint256 => uint256) public fine; // [challengeId] = sum of fine in wei\n\n    mapping(uint256 => bool) public isStarted; // [challengeId] = is challenge started?\n    mapping(uint256 => mapping(address => bool)) public isFinishedForAchiever; // [challengeId][addressOfAchiever = is challenge fihished for the achiever?\n    mapping(uint256 => uint256) public start; // [challengeId] = date of start of challenge\n    mapping(uint256 => mapping(uint256 => uint256)) public schedule; // [challengeId][indexOfItem] = duration of every schedule period in seconds\n    mapping(uint256 => uint256) public lastSchedulePeriodId; // [challengeId] = index of last schedule period\n    mapping(uint256 => mapping(address => uint256)) public idOfCurrentPeriod; // [challengeId][addressOfAchiever] = index of current schedule period for achiever (stage of doing challenge)\n    mapping(uint256 => mapping(address => uint256)) public startTimeOfCurrentPeriod; // [challengeId][addressOfAchiever] = date of start of current schedule period for achiever (stage of doing challenge)\n    mapping(uint256 => mapping(address => mapping(uint256 => bool))) public scheduleDone; // [challengeId][addressOfAchiever][indexOfItem] = result of schedule period (done or not) for achiever (stage of doing challenge)\n\n    mapping(uint256 => mapping(uint256 => uint256)) public fineAvailableForPeriod; // [challengeId][fineId] = index of schedule period for what fine taking is available\n    mapping(uint256 => mapping(uint256 => address)) public fineAvailableForAchiever; // [challengeId][fineId] = address of achiever for whom fine taking is available\n    mapping(uint256 => mapping(address => uint256)) public amountOfFinesAvailableForAchiever; // [challengeId][addressOfAchiever] = amount of fines available for achiever\n    mapping(uint256 => mapping(uint256 => bool)) public fineTaken; // [challengeId][fineId] = Is fine taken or not?\n    mapping(uint256 => uint256) public lastFineId; // [challengeId] = last fine id in challenge\n\n    constructor() public {\n        owner = msg.sender;\n    }\n\n    receive() external payable {\n        require(false, \"Contract Challenge doesn't accept payments.\");\n    }\n\n    function setContractWallet(address payable _walletAddress) public {\n        require(owner == msg.sender, \"Only owner can set contract Wallet\");\n        require(!isSetWallet, \"Contract Wallet has already set\");\n\n        walletAddress = _walletAddress;\n        walletContract = Wallet(_walletAddress);\n        isSetWallet = true;\n    }\n\n    function addChallenge(uint256 _start, uint256 _guarantee, uint256 _fine) public {\n        require(isSetWallet, \"Contract Wallet has to be set.\");\n        require(_guarantee >= _fine, \"Sum of guarantee should be either equal or greater than sum of fine\");\n\n        lastChallengeId++;\n\n        ownerOfChallenge[lastChallengeId] = msg.sender;\n\n        start[lastChallengeId] = _start;\n\n        guarantee[lastChallengeId] = _guarantee;\n        fine[lastChallengeId] = _fine;\n    }\n\n    function becomeAchiever(uint256 _challengeId, address _achiever, uint256 _sumOfWei) external returns (uint256) {\n        require(lastChallengeId >= _challengeId && _challengeId > 0, \"Challenge ID doesn't exist\");\n        require(msg.sender == walletAddress, \"Sender isn't contract Wallet.\");\n        require(_sumOfWei >= guarantee[_challengeId], \"Sum of wei is less than required guarantee sum.\");\n        require(!isAchiever[_challengeId][_achiever], \"This achiever is already exist\");\n        require(!isObserver[_challengeId][_achiever], \"This user has already become achiever\");\n        require(!isStarted[_challengeId], \"Challenge has already started.\");\n\n        uint256 nextAchieverId = ++lastAchieverId[_challengeId];\n        achievers[_challengeId][nextAchieverId] = _achiever;\n        isAchiever[_challengeId][_achiever] = true;\n\n        return guarantee[_challengeId];\n    }\n\n    function addObservers(uint256 _challengeId, address[10] memory _observers) public {\n        require(msg.sender == ownerOfChallenge[_challengeId], \"Only owner of challenge can add observer to schedule\");\n        require(lastChallengeId >= _challengeId && _challengeId > 0, \"Challenge ID doesn't exist\");\n        require(!isStarted[_challengeId], \"Challenge has already started.\");\n\n        uint256 nextObserverId = 0;\n        for(uint256 i = 0; i < 10; i++) {\n            if (_observers[i] == address(0)) {break;} // if it is empty element, finish adding observers\n\n            require(!isObserver[_challengeId][_observers[i]], \"This observer is already exist\");\n            require(!isAchiever[_challengeId][_observers[i]], \"This user has already become achiever\");\n            nextObserverId = ++lastObserverId[_challengeId];\n            observers[_challengeId][nextObserverId] = _observers[i];\n            isObserver[_challengeId][_observers[i]] = true;\n        }\n    }\n\n    function becomeObserver(uint256 _challengeId) public {\n        require(lastChallengeId >= _challengeId && _challengeId > 0, \"Challenge ID doesn't exist\");\n        require(!isObserver[_challengeId][msg.sender], \"This observer is already exist\");\n        require(!isAchiever[_challengeId][msg.sender], \"This user has already become achiever\");\n        require(!isStarted[_challengeId], \"Challenge has already started.\");\n\n        uint256 nextObserverId = ++lastObserverId[_challengeId];\n        observers[_challengeId][nextObserverId] = msg.sender;\n        isObserver[_challengeId][msg.sender] = true;\n    }\n\n    function addToSchedule(uint256 _challengeId, uint256[10] memory _schedulePeriods) public {\n        require(msg.sender == ownerOfChallenge[_challengeId], \"Only owner of challenge can add period to schedule\");\n        require(!isStarted[_challengeId], \"Challenge has already started.\");\n\n        uint256 nextSchedulePeriodId = 0;\n        for(uint256 i = 0; i < 10; i++) {\n            if (_schedulePeriods[i] == 0) {break;} // if it is empty element, finish adding schedule periods\n\n            nextSchedulePeriodId = ++lastSchedulePeriodId[_challengeId];\n            schedule[_challengeId][nextSchedulePeriodId] = _schedulePeriods[i];\n        }\n    }\n\n    function startChallenge(uint256 _challengeId) public {\n        require(lastChallengeId >= _challengeId && _challengeId > 0, \"Challenge ID doesn't exist\");\n        require(msg.sender == ownerOfChallenge[_challengeId], \"Only owner of challenge can start challenge\");\n        require(!isStarted[_challengeId], \"Challenge has already started.\");\n        require(lastSchedulePeriodId[_challengeId] > 0, \"There are no periods in schedule\");\n        require(lastAchieverId[_challengeId] > 0, \"There are no achievers\");\n        require(lastObserverId[_challengeId] > 0, \"There are no observers\");\n\n        if (now > start[_challengeId]) {\n            start[_challengeId] = now;\n        }\n\n        isStarted[_challengeId] = true;\n    }\n\n    function setDoneForPeriod(uint256 _challengeId) public {\n        require(lastChallengeId >= _challengeId, \"Challenge ID doesn't exist\");\n        require(isStarted[_challengeId], \"Challenge isn't started.\");\n\n        address achiever = msg.sender;\n        require(isAchiever[_challengeId][achiever], \"Only achiever of challenge can set done for period\");\n\n        uint256 _idOfCurrentPeriod = idOfCurrentPeriod[_challengeId][achiever];\n        uint256 _lastSchedulePeriodId = lastSchedulePeriodId[_challengeId];\n        if (_idOfCurrentPeriod == 0) {\n            // Assign started values for the first period\n            startTimeOfCurrentPeriod[_challengeId][achiever] = start[_challengeId];\n            idOfCurrentPeriod[_challengeId][achiever]++;\n            _idOfCurrentPeriod++;\n        }\n        require(_idOfCurrentPeriod <= _lastSchedulePeriodId, \"Challenge for this achiever has already finished.\");\n\n        uint256 endTimeOfCurrentPeriod = startTimeOfCurrentPeriod[_challengeId][achiever] + schedule[_challengeId][_idOfCurrentPeriod];\n        require(endTimeOfCurrentPeriod >= now, \"Current schedule period has already completed. At first you need to use function calcCurrentScheduleItem()\");\n\n        scheduleDone[_challengeId][achiever][_idOfCurrentPeriod] = true;\n\n        // Start new schedule period\n        _idOfCurrentPeriod = ++idOfCurrentPeriod[_challengeId][achiever];\n        startTimeOfCurrentPeriod[_challengeId][achiever] = endTimeOfCurrentPeriod;\n\n        // Check if achiever has finished the challenge\n        if (_idOfCurrentPeriod > _lastSchedulePeriodId) {\n            amountOfFinishedAchievers[_challengeId]++;\n        }\n    }\n\n    function calcCurrentPeriod(uint256 _challengeId, address _achiever) public returns(bool) {\n        require(lastChallengeId >= _challengeId, \"Challenge ID doesn't exist\");\n        require(isStarted[_challengeId], \"Challenge isn't started.\");\n        require(isAchiever[_challengeId][_achiever], \"This achiever doesn't exist\");\n\n        uint256 _idOfCurrentPeriod = idOfCurrentPeriod[_challengeId][_achiever];\n        uint256 _lastSchedulePeriodId = lastSchedulePeriodId[_challengeId];\n        if (_idOfCurrentPeriod == 0) {\n            // Assign started values for the first period\n            startTimeOfCurrentPeriod[_challengeId][_achiever] = start[_challengeId];\n            idOfCurrentPeriod[_challengeId][_achiever]++;\n            _idOfCurrentPeriod++;\n        }\n        require(_idOfCurrentPeriod <= _lastSchedulePeriodId, \"Challenge for this achiever has already finished.\");\n\n        uint256 _startTimeOfCurrentPeriod = startTimeOfCurrentPeriod[_challengeId][_achiever];\n        require(_startTimeOfCurrentPeriod + schedule[_challengeId][_idOfCurrentPeriod] <= now, \"Current schedule period is actual.\");\n\n        uint256 maxIdOfPeriodForCurrentChunk = _idOfCurrentPeriod + 10; // limit amount of periods to avoid exceeding limit of gas\n        bool isActual = false;\n        uint256 _lastFineId = 0;\n        uint256 endTimeOfCurrentPeriod = 0;\n        for (uint256 i = _idOfCurrentPeriod; i <= maxIdOfPeriodForCurrentChunk; i++) {\n            endTimeOfCurrentPeriod = _startTimeOfCurrentPeriod + schedule[_challengeId][i];\n            if (endTimeOfCurrentPeriod <= now) {\n                // Add element into mappings fineAvailableForPeriod and fineAvailableForAchiever. Observer can get fine for this period and achiever.\n                _lastFineId = ++lastFineId[_challengeId];\n                fineAvailableForPeriod[_challengeId][_lastFineId] = i;\n                fineAvailableForAchiever[_challengeId][_lastFineId] = _achiever;\n                amountOfFinesAvailableForAchiever[_challengeId][_achiever]++;\n\n                // Go to the next period\n                _startTimeOfCurrentPeriod = endTimeOfCurrentPeriod;\n                _idOfCurrentPeriod++;\n            } else {\n                // Current period is actual\n                isActual = true;\n                break;\n            }\n        }\n\n        startTimeOfCurrentPeriod[_challengeId][_achiever] = _startTimeOfCurrentPeriod;\n        idOfCurrentPeriod[_challengeId][_achiever] = _idOfCurrentPeriod;\n\n        // Check if achiever has finished the challenge\n        if (_idOfCurrentPeriod > _lastSchedulePeriodId) {\n            amountOfFinishedAchievers[_challengeId]++;\n        }\n\n        return isActual;\n    }\n\n    function takeFineForChallenge(uint256 _challengeId, uint256 _fineId, address _observer) external returns(address, uint256) {\n        require(lastChallengeId >= _challengeId, \"Challenge ID doesn't exist\");\n        require(msg.sender == walletAddress, \"Sender isn't contract Wallet.\");\n        require(lastFineId[_challengeId] >= _fineId, \"Fine ID doesn't exist\");\n        require(isObserver[_challengeId][_observer], \"User isn't observer.\");\n        require(!fineTaken[_challengeId][_fineId], \"Fine is already taken.\");\n\n        address achiever = fineAvailableForAchiever[_challengeId][_fineId];\n\n        fineTaken[_challengeId][_fineId] = true;\n        amountOfFinesAvailableForAchiever[_challengeId][achiever]--;\n\n        return (achiever, fine[_challengeId]);\n    }\n\n    function finishChallenge(uint256 _challengeId, address _achiever) public {\n        require(lastChallengeId >= _challengeId, \"Challenge ID doesn't exist\");\n        require(isAchiever[_challengeId][_achiever], \"User from parameter '_achiever' has to be an achiever.\");\n        require(idOfCurrentPeriod[_challengeId][_achiever] > lastSchedulePeriodId[_challengeId], \"Challenge for this achiever is continued.\");\n        require(amountOfFinesAvailableForAchiever[_challengeId][_achiever] == 0, \"All of the fines has to be taken from achiever.\");\n        require(!isFinishedForAchiever[_challengeId][_achiever], \"Challenge is already finished for the achiever.\");\n\n        isFinishedForAchiever[_challengeId][_achiever] = true;\n        walletContract.finishChallenge(_challengeId, _achiever);\n    }\n}",
  "sourcePath": "/home/freego/bchain/eth-prjs/challengego/smart_contracts/contracts/Challenge.sol",
  "compiler": {
    "name": "solc",
    "version": "0.6.6+commit.6c089d02.Emscripten.clang"
  },
  "schemaVersion": "3.2.5",
  "updatedAt": "2020-09-20T12:41:44.944Z",
  "networkType": "ethereum",
  "devdoc": {
    "methods": {}
  },
  "userdoc": {
    "methods": {}
  }
}