{
  "contractName": "Wallet",
  "abi": [
    {
      "inputs": [],
      "stateMutability": "nonpayable",
      "type": "constructor"
    },
    {
      "inputs": [],
      "name": "challengeAddress",
      "outputs": [
        {
          "internalType": "address payable",
          "name": "",
          "type": "address"
        }
      ],
      "stateMutability": "view",
      "type": "function",
      "constant": true
    },
    {
      "inputs": [],
      "name": "isSetChallenge",
      "outputs": [
        {
          "internalType": "bool",
          "name": "",
          "type": "bool"
        }
      ],
      "stateMutability": "view",
      "type": "function",
      "constant": true
    },
    {
      "inputs": [],
      "name": "owner",
      "outputs": [
        {
          "internalType": "address",
          "name": "",
          "type": "address"
        }
      ],
      "stateMutability": "view",
      "type": "function",
      "constant": true
    },
    {
      "inputs": [
        {
          "internalType": "address",
          "name": "",
          "type": "address"
        }
      ],
      "name": "reservedSumFromUser",
      "outputs": [
        {
          "internalType": "uint256",
          "name": "",
          "type": "uint256"
        }
      ],
      "stateMutability": "view",
      "type": "function",
      "constant": true
    },
    {
      "inputs": [
        {
          "internalType": "uint256",
          "name": "",
          "type": "uint256"
        },
        {
          "internalType": "address",
          "name": "",
          "type": "address"
        }
      ],
      "name": "reservedSumFromUserForChallenge",
      "outputs": [
        {
          "internalType": "uint256",
          "name": "",
          "type": "uint256"
        }
      ],
      "stateMutability": "view",
      "type": "function",
      "constant": true
    },
    {
      "stateMutability": "payable",
      "type": "receive",
      "payable": true
    },
    {
      "inputs": [
        {
          "internalType": "address payable",
          "name": "_challengeAddress",
          "type": "address"
        }
      ],
      "name": "setContractChallenge",
      "outputs": [],
      "stateMutability": "nonpayable",
      "type": "function"
    },
    {
      "inputs": [
        {
          "internalType": "address",
          "name": "_user",
          "type": "address"
        }
      ],
      "name": "getAvailableBalance",
      "outputs": [
        {
          "internalType": "uint256",
          "name": "",
          "type": "uint256"
        }
      ],
      "stateMutability": "view",
      "type": "function",
      "constant": true
    },
    {
      "inputs": [
        {
          "internalType": "address payable",
          "name": "_user",
          "type": "address"
        },
        {
          "internalType": "uint256",
          "name": "_sumOfWei",
          "type": "uint256"
        }
      ],
      "name": "withdraw",
      "outputs": [],
      "stateMutability": "nonpayable",
      "type": "function"
    },
    {
      "inputs": [
        {
          "internalType": "uint256",
          "name": "_challengeId",
          "type": "uint256"
        }
      ],
      "name": "becomeAchiever",
      "outputs": [],
      "stateMutability": "payable",
      "type": "function",
      "payable": true
    },
    {
      "inputs": [
        {
          "internalType": "uint256",
          "name": "_challengeId",
          "type": "uint256"
        },
        {
          "internalType": "uint256",
          "name": "_fineId",
          "type": "uint256"
        },
        {
          "internalType": "address",
          "name": "_observer",
          "type": "address"
        }
      ],
      "name": "takeFineForChallenge",
      "outputs": [],
      "stateMutability": "nonpayable",
      "type": "function"
    },
    {
      "inputs": [
        {
          "internalType": "uint256",
          "name": "_challengeId",
          "type": "uint256"
        },
        {
          "internalType": "address",
          "name": "_achiever",
          "type": "address"
        }
      ],
      "name": "finishChallenge",
      "outputs": [],
      "stateMutability": "nonpayable",
      "type": "function"
    }
  ],
  "bytecode": "0x608060405234801561001057600080fd5b50336000806101000a81548173ffffffffffffffffffffffffffffffffffffffff021916908373ffffffffffffffffffffffffffffffffffffffff160217905550611252806100606000396000f3fe6080604052600436106100a05760003560e01c80636c24a76f116100645780636c24a76f146102ae5780638534fff2146103135780638da5cb5b14610378578063cf450781146103cf578063f3fef3a31461042a578063fa63ea6714610485576100fe565b806327230e681461010357806329d188791461017257806336a06faa146101c95780634d62eadb146101f85780635c22833014610249576100fe565b366100fe5760006100fc576040517f08c379a00000000000000000000000000000000000000000000000000000000081526004018080602001828103825260288152602001806111f56028913960400191505060405180910390fd5b005b600080fd5b34801561010f57600080fd5b5061015c6004803603604081101561012657600080fd5b8101908080359060200190929190803573ffffffffffffffffffffffffffffffffffffffff1690602001909291905050506104b3565b6040518082815260200191505060405180910390f35b34801561017e57600080fd5b506101876104d8565b604051808273ffffffffffffffffffffffffffffffffffffffff1673ffffffffffffffffffffffffffffffffffffffff16815260200191505060405180910390f35b3480156101d557600080fd5b506101de6104fe565b604051808215151515815260200191505060405180910390f35b34801561020457600080fd5b506102476004803603602081101561021b57600080fd5b81019080803573ffffffffffffffffffffffffffffffffffffffff169060200190929190505050610511565b005b34801561025557600080fd5b506102986004803603602081101561026c57600080fd5b81019080803573ffffffffffffffffffffffffffffffffffffffff1690602001909291905050506106de565b6040518082815260200191505060405180910390f35b3480156102ba57600080fd5b506102fd600480360360208110156102d157600080fd5b81019080803573ffffffffffffffffffffffffffffffffffffffff1690602001909291905050506106f6565b6040518082815260200191505060405180910390f35b34801561031f57600080fd5b506103766004803603606081101561033657600080fd5b810190808035906020019092919080359060200190929190803573ffffffffffffffffffffffffffffffffffffffff169060200190929190505050610780565b005b34801561038457600080fd5b5061038d610ad6565b604051808273ffffffffffffffffffffffffffffffffffffffff1673ffffffffffffffffffffffffffffffffffffffff16815260200191505060405180910390f35b3480156103db57600080fd5b50610428600480360360408110156103f257600080fd5b8101908080359060200190929190803573ffffffffffffffffffffffffffffffffffffffff169060200190929190505050610afb565b005b34801561043657600080fd5b506104836004803603604081101561044d57600080fd5b81019080803573ffffffffffffffffffffffffffffffffffffffff16906020019092919080359060200190929190505050610cb5565b005b6104b16004803603602081101561049b57600080fd5b8101908080359060200190929190505050610e34565b005b6003602052816000526040600020602052806000526040600020600091509150505481565b600460009054906101000a900473ffffffffffffffffffffffffffffffffffffffff1681565b600560149054906101000a900460ff1681565b3373ffffffffffffffffffffffffffffffffffffffff166000809054906101000a900473ffffffffffffffffffffffffffffffffffffffff1673ffffffffffffffffffffffffffffffffffffffff16146105b6576040517f08c379a00000000000000000000000000000000000000000000000000000000081526004018080602001828103825260258152602001806111d06025913960400191505060405180910390fd5b600560149054906101000a900460ff161561061c576040517f08c379a000000000000000000000000000000000000000000000000000000000815260040180806020018281038252602281526020018061117d6022913960400191505060405180910390fd5b80600460006101000a81548173ffffffffffffffffffffffffffffffffffffffff021916908373ffffffffffffffffffffffffffffffffffffffff160217905550600460009054906101000a900473ffffffffffffffffffffffffffffffffffffffff16600560006101000a81548173ffffffffffffffffffffffffffffffffffffffff021916908373ffffffffffffffffffffffffffffffffffffffff1602179055506001600560146101000a81548160ff02191690831515021790555050565b60026020528060005260406000206000915090505481565b6000600260008373ffffffffffffffffffffffffffffffffffffffff1673ffffffffffffffffffffffffffffffffffffffff16815260200190815260200160002054600160008473ffffffffffffffffffffffffffffffffffffffff1673ffffffffffffffffffffffffffffffffffffffff16815260200190815260200160002054039050919050565b600560149054906101000a900460ff166107e5576040517f08c379a00000000000000000000000000000000000000000000000000000000081526004018080602001828103825260218152602001806110f36021913960400191505060405180910390fd5b600080600560009054906101000a900473ffffffffffffffffffffffffffffffffffffffff1673ffffffffffffffffffffffffffffffffffffffff16638534fff28686866040518463ffffffff1660e01b8152600401808481526020018381526020018273ffffffffffffffffffffffffffffffffffffffff1673ffffffffffffffffffffffffffffffffffffffff16815260200193505050506040805180830381600087803b15801561089857600080fd5b505af11580156108ac573d6000803e3d6000fd5b505050506040513d60408110156108c257600080fd5b81019080805190602001909291908051906020019092919050505091509150806003600087815260200190815260200160002060008473ffffffffffffffffffffffffffffffffffffffff1673ffffffffffffffffffffffffffffffffffffffff16815260200190815260200160002054101561098a576040517f08c379a00000000000000000000000000000000000000000000000000000000081526004018080602001828103825260378152602001806111146037913960400191505060405180910390fd5b806003600087815260200190815260200160002060008473ffffffffffffffffffffffffffffffffffffffff1673ffffffffffffffffffffffffffffffffffffffff1681526020019081526020016000206000828254039250508190555080600260008473ffffffffffffffffffffffffffffffffffffffff1673ffffffffffffffffffffffffffffffffffffffff1681526020019081526020016000206000828254039250508190555080600160008473ffffffffffffffffffffffffffffffffffffffff1673ffffffffffffffffffffffffffffffffffffffff1681526020019081526020016000206000828254039250508190555080600160008573ffffffffffffffffffffffffffffffffffffffff1673ffffffffffffffffffffffffffffffffffffffff168152602001908152602001600020600082825401925050819055505050505050565b6000809054906101000a900473ffffffffffffffffffffffffffffffffffffffff1681565b600460009054906101000a900473ffffffffffffffffffffffffffffffffffffffff1673ffffffffffffffffffffffffffffffffffffffff163373ffffffffffffffffffffffffffffffffffffffff1614610bbe576040517f08c379a00000000000000000000000000000000000000000000000000000000081526004018080602001828103825260208152602001807f53656e6465722069736e277420636f6e7472616374204368616c6c656e67652e81525060200191505060405180910390fd5b6003600083815260200190815260200160002060008273ffffffffffffffffffffffffffffffffffffffff1673ffffffffffffffffffffffffffffffffffffffff16815260200190815260200160002054600260008373ffffffffffffffffffffffffffffffffffffffff1673ffffffffffffffffffffffffffffffffffffffff1681526020019081526020016000206000828254039250508190555060006003600084815260200190815260200160002060008373ffffffffffffffffffffffffffffffffffffffff1673ffffffffffffffffffffffffffffffffffffffff168152602001908152602001600020819055505050565b80610cbf336106f6565b1015610d16576040517f08c379a000000000000000000000000000000000000000000000000000000000815260040180806020018281038252603181526020018061119f6031913960400191505060405180910390fd5b600073ffffffffffffffffffffffffffffffffffffffff168273ffffffffffffffffffffffffffffffffffffffff161415610d9c576040517f08c379a000000000000000000000000000000000000000000000000000000000815260040180806020018281038252603281526020018061114b6032913960400191505060405180910390fd5b80600160003373ffffffffffffffffffffffffffffffffffffffff1673ffffffffffffffffffffffffffffffffffffffff168152602001908152602001600020600082825403925050819055508173ffffffffffffffffffffffffffffffffffffffff166108fc829081150290604051600060405180830381858888f19350505050158015610e2f573d6000803e3d6000fd5b505050565b600560149054906101000a900460ff16610e99576040517f08c379a00000000000000000000000000000000000000000000000000000000081526004018080602001828103825260218152602001806110f36021913960400191505060405180910390fd5b60008111610f0f576040517f08c379a000000000000000000000000000000000000000000000000000000000815260040180806020018281038252601b8152602001807f4368616c6c656e676520494420646f65736e27742065786973742e000000000081525060200191505060405180910390fd5b6000600560009054906101000a900473ffffffffffffffffffffffffffffffffffffffff1673ffffffffffffffffffffffffffffffffffffffff16633c508ac38333346040518463ffffffff1660e01b8152600401808481526020018373ffffffffffffffffffffffffffffffffffffffff1673ffffffffffffffffffffffffffffffffffffffff1681526020018281526020019350505050602060405180830381600087803b158015610fc257600080fd5b505af1158015610fd6573d6000803e3d6000fd5b505050506040513d6020811015610fec57600080fd5b81019080805190602001909291905050509050806003600084815260200190815260200160002060003373ffffffffffffffffffffffffffffffffffffffff1673ffffffffffffffffffffffffffffffffffffffff1681526020019081526020016000208190555080600260003373ffffffffffffffffffffffffffffffffffffffff1673ffffffffffffffffffffffffffffffffffffffff1681526020019081526020016000206000828254019250508190555034600160003373ffffffffffffffffffffffffffffffffffffffff1673ffffffffffffffffffffffffffffffffffffffff16815260200190815260200160002060008282540192505081905550505056fe436f6e7472616374204368616c6c656e67652068617320746f206265207365742e52657365727665642073756d2066726f6d207573657220666f722074686973206368616c6c656e67652069736e277420656e6f7567682e547279696e6720746f2077697468647261772066756e647320746f20302d616464726573732077617320626c6f636b65642e436f6e7472616374204368616c6c656e67652068617320616c726561647920736574417661696c61626c652062616c616e63652069736e277420656e6f75676820746f2077697468647261772066756e64732e4f6e6c79206f776e65722063616e2073657420636f6e7472616374204368616c6c656e6765436f6e74726163742057616c6c657420646f65736e277420616363657074207061796d656e74732ea26469706673582212209044ff089b52a2f84ca3a5dd69fa3dd816f3ae1cf86c7ddd38308483658d717264736f6c63430006060033",
  "immutableReferences": {},
  "source": "pragma solidity ^0.6.6;\nimport './Challenge.sol';\n\ncontract Wallet {\n    address public owner;\n\n    mapping(address => uint256) balance; // [user] = sum of wei on the balance of current user\n    mapping(address => uint256) public reservedSumFromUser; // [user] = sum of wei of current user that is reserved\n    mapping(uint256 => mapping(address => uint256)) public reservedSumFromUserForChallenge; // [challenge][user] = sum of wei of current user for challenge\n\n    address payable public challengeAddress;\n    Challenge challengeContract;\n    bool public isSetChallenge;\n\n    constructor() public {\n        owner = msg.sender;\n    }\n\n    receive() external payable {\n        require(false, \"Contract Wallet doesn't accept payments.\");\n    }\n\n    function setContractChallenge(address payable _challengeAddress) public {\n        require(owner == msg.sender, \"Only owner can set contract Challenge\");\n        require(!isSetChallenge, \"Contract Challenge has already set\");\n\n        challengeAddress = _challengeAddress;\n        challengeContract = Challenge(challengeAddress);\n        isSetChallenge = true;\n    }\n\n    function getAvailableBalance(address _user) view public returns(uint256) {\n        return balance[_user] - reservedSumFromUser[_user];\n    }\n\n    function withdraw(address payable _user, uint256 _sumOfWei) public {\n        require(getAvailableBalance(msg.sender) >= _sumOfWei, \"Available balance isn't enough to withdraw funds.\");\n        require(_user != address(0), \"Trying to withdraw funds to 0-address was blocked.\");\n\n        balance[msg.sender] -= _sumOfWei;\n        _user.transfer(_sumOfWei);\n    }\n\n    function becomeAchiever(uint256 _challengeId) payable public {\n        require(isSetChallenge, \"Contract Challenge has to be set.\");\n        require(_challengeId > 0, \"Challenge ID doesn't exist.\");\n\n        uint256 sumOfGuarantee = challengeContract.becomeAchiever(_challengeId, msg.sender, msg.value);\n\n        reservedSumFromUserForChallenge[_challengeId][msg.sender] = sumOfGuarantee;\n        reservedSumFromUser[msg.sender] += sumOfGuarantee;\n        balance[msg.sender] += msg.value;\n    }\n\n    function takeFineForChallenge(uint256 _challengeId, uint256 _fineId, address _observer) public {\n        require(isSetChallenge, \"Contract Challenge has to be set.\");\n\n        (address achiever, uint256 sumOfFine) = challengeContract.takeFineForChallenge(_challengeId, _fineId, _observer);\n\n        require(reservedSumFromUserForChallenge[_challengeId][achiever] >= sumOfFine, \"Reserved sum from user for this challenge isn't enough.\");\n        reservedSumFromUserForChallenge[_challengeId][achiever] -= sumOfFine;\n        reservedSumFromUser[achiever] -= sumOfFine;\n        balance[achiever] -= sumOfFine;\n        balance[_observer] += sumOfFine;\n    }\n\n    function finishChallenge(uint256 _challengeId, address _achiever) external {\n        require(msg.sender == challengeAddress, \"Sender isn't contract Challenge.\");\n\n        reservedSumFromUser[_achiever] -= reservedSumFromUserForChallenge[_challengeId][_achiever];\n        reservedSumFromUserForChallenge[_challengeId][_achiever] = 0;\n    }\n}",
  "sourcePath": "/home/freego/bchain/eth-prjs/challengego/smart_contracts/contracts/Wallet.sol",
  "compiler": {
    "name": "solc",
    "version": "0.6.6+commit.6c089d02.Emscripten.clang"
  },
  "schemaVersion": "3.2.5",
  "updatedAt": "2020-09-20T12:41:44.959Z",
  "networkType": "ethereum",
  "devdoc": {
    "methods": {}
  },
  "userdoc": {
    "methods": {}
  }
}